{
  "contractName": "rootChain",
  "abi": [
    {
      "constant": true,
      "inputs": [],
      "name": "operator",
      "outputs": [
        {
          "name": "",
          "type": "address"
        }
      ],
      "payable": false,
      "stateMutability": "view",
      "type": "function"
    },
    {
      "constant": true,
      "inputs": [],
      "name": "currentChildBlock",
      "outputs": [
        {
          "name": "",
          "type": "uint256"
        }
      ],
      "payable": false,
      "stateMutability": "view",
      "type": "function"
    },
    {
      "constant": true,
      "inputs": [
        {
          "name": "",
          "type": "uint256"
        }
      ],
      "name": "childChain",
      "outputs": [
        {
          "name": "root",
          "type": "bytes32"
        },
        {
          "name": "timestamp",
          "type": "uint256"
        }
      ],
      "payable": false,
      "stateMutability": "view",
      "type": "function"
    },
    {
      "inputs": [],
      "payable": false,
      "stateMutability": "nonpayable",
      "type": "constructor"
    },
    {
      "anonymous": false,
      "inputs": [
        {
          "indexed": false,
          "name": "root",
          "type": "bytes32"
        },
        {
          "indexed": false,
          "name": "timestamp",
          "type": "uint256"
        }
      ],
      "name": "BlockSubmitted",
      "type": "event"
    },
    {
      "anonymous": false,
      "inputs": [
        {
          "indexed": true,
          "name": "depositor",
          "type": "address"
        },
        {
          "indexed": true,
          "name": "depositBlock",
          "type": "uint256"
        },
        {
          "indexed": false,
          "name": "token",
          "type": "address"
        },
        {
          "indexed": false,
          "name": "amount",
          "type": "uint256"
        }
      ],
      "name": "Deposit",
      "type": "event"
    },
    {
      "constant": false,
      "inputs": [
        {
          "name": "_root",
          "type": "bytes32"
        }
      ],
      "name": "submitBlock",
      "outputs": [],
      "payable": false,
      "stateMutability": "nonpayable",
      "type": "function"
    },
    {
      "constant": true,
      "inputs": [
        {
          "name": "_blockNumber",
          "type": "uint256"
        }
      ],
      "name": "getChildChain",
      "outputs": [
        {
          "name": "",
          "type": "bytes32"
        },
        {
          "name": "",
          "type": "uint256"
        }
      ],
      "payable": false,
      "stateMutability": "view",
      "type": "function"
    },
    {
      "constant": false,
      "inputs": [],
      "name": "deposit",
      "outputs": [],
      "payable": true,
      "stateMutability": "payable",
      "type": "function"
    }
  ],
  "bytecode": "0x608060405234801561001057600080fd5b50336000806101000a81548173ffffffffffffffffffffffffffffffffffffffff021916908373ffffffffffffffffffffffffffffffffffffffff160217905550600060018190555061050b806100686000396000f300608060405260043610610078576000357c0100000000000000000000000000000000000000000000000000000000900463ffffffff168063570ca7351461007d5780637a95f1e8146100d457806385444de3146100ff578063baa476941461014f578063d0e30db014610180578063f95643b11461018a575b600080fd5b34801561008957600080fd5b506100926101da565b604051808273ffffffffffffffffffffffffffffffffffffffff1673ffffffffffffffffffffffffffffffffffffffff16815260200191505060405180910390f35b3480156100e057600080fd5b506100e96101ff565b6040518082815260200191505060405180910390f35b34801561010b57600080fd5b5061012a60048036038101908080359060200190929190505050610205565b6040518083600019166000191681526020018281526020019250505060405180910390f35b34801561015b57600080fd5b5061017e600480360381019080803560001916906020019092919050505061023f565b005b61018861033a565b005b34801561019657600080fd5b506101b5600480360381019080803590602001909291905050506104bb565b6040518083600019166000191681526020018281526020019250505060405180910390f35b6000809054906101000a900473ffffffffffffffffffffffffffffffffffffffff1681565b60015481565b6000806002600084815260200190815260200160002060000154600260008581526020019081526020016000206001015491509150915091565b6000809054906101000a900473ffffffffffffffffffffffffffffffffffffffff1673ffffffffffffffffffffffffffffffffffffffff163373ffffffffffffffffffffffffffffffffffffffff1614151561029a57600080fd5b60408051908101604052808260001916815260200142815250600260006001548152602001908152602001600020600082015181600001906000191690556020820151816001015590505060018054016001819055507f3be20e672590051e92360aa9dd9247e52541ad35d7a0297ff9e0f94e993295e981426040518083600019166000191681526020018281526020019250505060405180910390a150565b60008033600034604051808473ffffffffffffffffffffffffffffffffffffffff1673ffffffffffffffffffffffffffffffffffffffff166c010000000000000000000000000281526014018373ffffffffffffffffffffffffffffffffffffffff1673ffffffffffffffffffffffffffffffffffffffff166c01000000000000000000000000028152601401828152602001935050505060405180910390209150600180540190506040805190810160405280836000191681526020014281525060026000838152602001908152602001600020600082015181600001906000191690556020820151816001015590505080600181905550803373ffffffffffffffffffffffffffffffffffffffff167fd2f8022f659fd9c8c558f30c00fd5ee7038f7cb56da45095c3e0e7d48b3e0c4b600034604051808373ffffffffffffffffffffffffffffffffffffffff1673ffffffffffffffffffffffffffffffffffffffff1681526020018281526020019250505060405180910390a35050565b600260205280600052604060002060009150905080600001549080600101549050825600a165627a7a723058207d5df8ae200d03926b21098854ef6234324b9bbb9f42da1a9cd75c2929467c320029",
  "source": "pragma solidity ^0.4.23;\n\ncontract rootChain {\n    address public operator;\n    uint256 public currentChildBlock;\n    mapping (uint256 => ChildBlock) public childChain;\n\n\n    event BlockSubmitted(\n        bytes32 root,\n        uint256 timestamp\n    );\n\n    struct ChildBlock {\n        bytes32 root;\n        uint256 timestamp;\n    }\n\n    event Deposit(\n        address indexed depositor,\n        uint256 indexed depositBlock,\n        address token,\n        uint256 amount\n    );\n    modifier onlyOperator() {\n        require(msg.sender == operator);\n        _;\n    }\n\n    constructor()\n       public\n    {\n        operator = msg.sender;\n        currentChildBlock = 0;\n    }\n\n    function submitBlock(bytes32 _root)\n       public\n       onlyOperator\n    {\n        childChain[currentChildBlock] = ChildBlock({\n            root: _root,\n            timestamp: block.timestamp\n        });\n\n       // Update block numbers.\n        currentChildBlock = currentChildBlock + 1;\n\n        emit BlockSubmitted(_root, block.timestamp);\n    }\n\n    function getChildChain(uint256 _blockNumber)\n        public\n        view\n        returns (bytes32, uint256)\n    {\n        return (childChain[_blockNumber].root, childChain[_blockNumber].timestamp);\n    }\n\n    // TODO\n    function deposit()\n        public\n        payable\n    {\n        // Only allow up to CHILD_BLOCK_INTERVAL deposits per child block.\n        //require(currentDepositBlock < CHILD_BLOCK_INTERVAL);\n\n        bytes32 root = keccak256(msg.sender, address(0), msg.value);\n \n        uint depositBlock = currentChildBlock + 1;\n        childChain[depositBlock] = ChildBlock({\n            root: root,\n            timestamp: block.timestamp\n        });\n        currentChildBlock = depositBlock;\n\n        emit Deposit(msg.sender, depositBlock, address(0), msg.value);\n    }\n}\n",
  "sourcePath": "/home/apalau/Dropbox/08Repositorios/plasma-implementation/plasma/contracts/rootChain.sol",
  "compiler": {
    "name": "solc",
    "version": "0.4.24+commit.e67f0147.Emscripten.clang"
  },
  "schemaVersion": "2.0.1",
  "updatedAt": "2018-07-13T15:12:53.473Z"
}