{
  "contractName": "rootChain",
  "abi": [
    {
      "constant": true,
      "inputs": [],
      "name": "operator",
      "outputs": [
        {
          "name": "",
          "type": "address"
        }
      ],
      "payable": false,
      "stateMutability": "view",
      "type": "function"
    },
    {
      "constant": true,
      "inputs": [],
      "name": "currentChildBlock",
      "outputs": [
        {
          "name": "",
          "type": "uint256"
        }
      ],
      "payable": false,
      "stateMutability": "view",
      "type": "function"
    },
    {
      "constant": true,
      "inputs": [
        {
          "name": "",
          "type": "uint256"
        }
      ],
      "name": "childChain",
      "outputs": [
        {
          "name": "root",
          "type": "bytes32"
        },
        {
          "name": "timestamp",
          "type": "uint256"
        }
      ],
      "payable": false,
      "stateMutability": "view",
      "type": "function"
    },
    {
      "inputs": [],
      "payable": false,
      "stateMutability": "nonpayable",
      "type": "constructor"
    },
    {
      "anonymous": false,
      "inputs": [
        {
          "indexed": false,
          "name": "root",
          "type": "bytes32"
        },
        {
          "indexed": false,
          "name": "timestamp",
          "type": "uint256"
        }
      ],
      "name": "BlockSubmitted",
      "type": "event"
    },
    {
      "constant": false,
      "inputs": [
        {
          "name": "_root",
          "type": "bytes32"
        }
      ],
      "name": "submitBlock",
      "outputs": [],
      "payable": false,
      "stateMutability": "nonpayable",
      "type": "function"
    },
    {
      "constant": true,
      "inputs": [
        {
          "name": "_blockNumber",
          "type": "uint256"
        }
      ],
      "name": "getChildChain",
      "outputs": [
        {
          "name": "",
          "type": "bytes32"
        },
        {
          "name": "",
          "type": "uint256"
        }
      ],
      "payable": false,
      "stateMutability": "view",
      "type": "function"
    }
  ],
  "bytecode": "0x608060405234801561001057600080fd5b50336000806101000a81548173ffffffffffffffffffffffffffffffffffffffff021916908373ffffffffffffffffffffffffffffffffffffffff1602179055506000600181905550610375806100686000396000f30060806040526004361061006d576000357c0100000000000000000000000000000000000000000000000000000000900463ffffffff168063570ca735146100725780637a95f1e8146100c957806385444de3146100f4578063baa4769414610144578063f95643b114610175575b600080fd5b34801561007e57600080fd5b506100876101c5565b604051808273ffffffffffffffffffffffffffffffffffffffff1673ffffffffffffffffffffffffffffffffffffffff16815260200191505060405180910390f35b3480156100d557600080fd5b506100de6101ea565b6040518082815260200191505060405180910390f35b34801561010057600080fd5b5061011f600480360381019080803590602001909291905050506101f0565b6040518083600019166000191681526020018281526020019250505060405180910390f35b34801561015057600080fd5b50610173600480360381019080803560001916906020019092919050505061022a565b005b34801561018157600080fd5b506101a060048036038101908080359060200190929190505050610325565b6040518083600019166000191681526020018281526020019250505060405180910390f35b6000809054906101000a900473ffffffffffffffffffffffffffffffffffffffff1681565b60015481565b6000806002600084815260200190815260200160002060000154600260008581526020019081526020016000206001015491509150915091565b6000809054906101000a900473ffffffffffffffffffffffffffffffffffffffff1673ffffffffffffffffffffffffffffffffffffffff163373ffffffffffffffffffffffffffffffffffffffff1614151561028557600080fd5b60408051908101604052808260001916815260200142815250600260006001548152602001908152602001600020600082015181600001906000191690556020820151816001015590505060018054016001819055507f3be20e672590051e92360aa9dd9247e52541ad35d7a0297ff9e0f94e993295e981426040518083600019166000191681526020018281526020019250505060405180910390a150565b600260205280600052604060002060009150905080600001549080600101549050825600a165627a7a723058204da115b534cf38619e9ceae69cc3910e93680931b587d20516ba9dd9e1c46f140029",
  "source": "pragma solidity ^0.4.23;\n\ncontract rootChain {\n   address public operator;\n   uint256 public currentChildBlock;\n   mapping (uint256 => ChildBlock) public childChain;\n\n\n   event BlockSubmitted(\n        bytes32 root,\n        uint256 timestamp\n   );\n\n   struct ChildBlock {\n       bytes32 root;\n       uint256 timestamp;\n   }\n\n   modifier onlyOperator() {\n       require(msg.sender == operator);\n       _;\n   }\n\n   constructor()\n       public\n   {\n       operator = msg.sender;\n       currentChildBlock = 0;\n   }\n\n   function submitBlock(bytes32 _root)\n       public\n       onlyOperator\n   {\n       childChain[currentChildBlock] = ChildBlock({\n           root: _root,\n           timestamp: block.timestamp\n       });\n\n       // Update block numbers.\n       currentChildBlock = currentChildBlock + 1;\n\n       emit BlockSubmitted(_root, block.timestamp);\n   }\n   function getChildChain(uint256 _blockNumber)\n    public\n    view\n    returns (bytes32, uint256)\n    {\n      return (childChain[_blockNumber].root, childChain[_blockNumber].timestamp);\n    }\n}\n",
  "sourcePath": "/home/apalau/Dropbox/08Repositorios/plasma-implementation/plasma/contracts/rootChain.sol",
  "compiler": {
    "name": "solc",
    "version": "0.4.24+commit.e67f0147.Emscripten.clang"
  },
  "schemaVersion": "2.0.1",
  "updatedAt": "2018-07-08T16:07:17.834Z"
}